{
  "contractName": "UnusualGuests",
  "abi": [
    {
      "inputs": [
        {
          "internalType": "string",
          "name": "baseURI",
          "type": "string"
        }
      ],
      "stateMutability": "nonpayable",
      "type": "constructor"
    },
    {
      "anonymous": false,
      "inputs": [
        {
          "indexed": true,
          "internalType": "address",
          "name": "owner",
          "type": "address"
        },
        {
          "indexed": true,
          "internalType": "address",
          "name": "approved",
          "type": "address"
        },
        {
          "indexed": true,
          "internalType": "uint256",
          "name": "tokenId",
          "type": "uint256"
        }
      ],
      "name": "Approval",
      "type": "event"
    },
    {
      "anonymous": false,
      "inputs": [
        {
          "indexed": true,
          "internalType": "address",
          "name": "owner",
          "type": "address"
        },
        {
          "indexed": true,
          "internalType": "address",
          "name": "operator",
          "type": "address"
        },
        {
          "indexed": false,
          "internalType": "bool",
          "name": "approved",
          "type": "bool"
        }
      ],
      "name": "ApprovalForAll",
      "type": "event"
    },
    {
      "anonymous": false,
      "inputs": [
        {
          "indexed": false,
          "internalType": "uint256",
          "name": "tokenId",
          "type": "uint256"
        },
        {
          "indexed": false,
          "internalType": "address",
          "name": "sender",
          "type": "address"
        }
      ],
      "name": "AssetMinted",
      "type": "event"
    },
    {
      "anonymous": false,
      "inputs": [
        {
          "indexed": true,
          "internalType": "address",
          "name": "previousOwner",
          "type": "address"
        },
        {
          "indexed": true,
          "internalType": "address",
          "name": "newOwner",
          "type": "address"
        }
      ],
      "name": "OwnershipTransferred",
      "type": "event"
    },
    {
      "anonymous": false,
      "inputs": [
        {
          "indexed": false,
          "internalType": "bool",
          "name": "isMintActive",
          "type": "bool"
        }
      ],
      "name": "SaleActivation",
      "type": "event"
    },
    {
      "anonymous": false,
      "inputs": [
        {
          "indexed": true,
          "internalType": "address",
          "name": "from",
          "type": "address"
        },
        {
          "indexed": true,
          "internalType": "address",
          "name": "to",
          "type": "address"
        },
        {
          "indexed": true,
          "internalType": "uint256",
          "name": "tokenId",
          "type": "uint256"
        }
      ],
      "name": "Transfer",
      "type": "event"
    },
    {
      "inputs": [],
      "name": "PROVENANCE",
      "outputs": [
        {
          "internalType": "string",
          "name": "",
          "type": "string"
        }
      ],
      "stateMutability": "view",
      "type": "function"
    },
    {
      "inputs": [
        {
          "internalType": "address",
          "name": "to",
          "type": "address"
        },
        {
          "internalType": "uint256",
          "name": "tokenId",
          "type": "uint256"
        }
      ],
      "name": "approve",
      "outputs": [],
      "stateMutability": "nonpayable",
      "type": "function"
    },
    {
      "inputs": [
        {
          "internalType": "address",
          "name": "owner",
          "type": "address"
        }
      ],
      "name": "balanceOf",
      "outputs": [
        {
          "internalType": "uint256",
          "name": "",
          "type": "uint256"
        }
      ],
      "stateMutability": "view",
      "type": "function"
    },
    {
      "inputs": [
        {
          "internalType": "uint256",
          "name": "tokenId",
          "type": "uint256"
        }
      ],
      "name": "getApproved",
      "outputs": [
        {
          "internalType": "address",
          "name": "",
          "type": "address"
        }
      ],
      "stateMutability": "view",
      "type": "function"
    },
    {
      "inputs": [
        {
          "internalType": "address",
          "name": "owner",
          "type": "address"
        },
        {
          "internalType": "address",
          "name": "operator",
          "type": "address"
        }
      ],
      "name": "isApprovedForAll",
      "outputs": [
        {
          "internalType": "bool",
          "name": "",
          "type": "bool"
        }
      ],
      "stateMutability": "view",
      "type": "function"
    },
    {
      "inputs": [],
      "name": "isClosedMintForever",
      "outputs": [
        {
          "internalType": "bool",
          "name": "",
          "type": "bool"
        }
      ],
      "stateMutability": "view",
      "type": "function"
    },
    {
      "inputs": [],
      "name": "isMintActive",
      "outputs": [
        {
          "internalType": "bool",
          "name": "",
          "type": "bool"
        }
      ],
      "stateMutability": "view",
      "type": "function"
    },
    {
      "inputs": [],
      "name": "isPreSaleMintActive",
      "outputs": [
        {
          "internalType": "bool",
          "name": "",
          "type": "bool"
        }
      ],
      "stateMutability": "view",
      "type": "function"
    },
    {
      "inputs": [],
      "name": "maximumAllowedTokensPerPurchase",
      "outputs": [
        {
          "internalType": "uint256",
          "name": "",
          "type": "uint256"
        }
      ],
      "stateMutability": "view",
      "type": "function"
    },
    {
      "inputs": [],
      "name": "maximumMintSupply",
      "outputs": [
        {
          "internalType": "uint256",
          "name": "",
          "type": "uint256"
        }
      ],
      "stateMutability": "view",
      "type": "function"
    },
    {
      "inputs": [],
      "name": "mintPrice",
      "outputs": [
        {
          "internalType": "uint256",
          "name": "",
          "type": "uint256"
        }
      ],
      "stateMutability": "view",
      "type": "function"
    },
    {
      "inputs": [],
      "name": "name",
      "outputs": [
        {
          "internalType": "string",
          "name": "",
          "type": "string"
        }
      ],
      "stateMutability": "view",
      "type": "function"
    },
    {
      "inputs": [],
      "name": "owner",
      "outputs": [
        {
          "internalType": "address",
          "name": "",
          "type": "address"
        }
      ],
      "stateMutability": "view",
      "type": "function"
    },
    {
      "inputs": [
        {
          "internalType": "uint256",
          "name": "tokenId",
          "type": "uint256"
        }
      ],
      "name": "ownerOf",
      "outputs": [
        {
          "internalType": "address",
          "name": "",
          "type": "address"
        }
      ],
      "stateMutability": "view",
      "type": "function"
    },
    {
      "inputs": [],
      "name": "preSaleMintPrice",
      "outputs": [
        {
          "internalType": "uint256",
          "name": "",
          "type": "uint256"
        }
      ],
      "stateMutability": "view",
      "type": "function"
    },
    {
      "inputs": [],
      "name": "renounceOwnership",
      "outputs": [],
      "stateMutability": "nonpayable",
      "type": "function"
    },
    {
      "inputs": [
        {
          "internalType": "address",
          "name": "from",
          "type": "address"
        },
        {
          "internalType": "address",
          "name": "to",
          "type": "address"
        },
        {
          "internalType": "uint256",
          "name": "tokenId",
          "type": "uint256"
        }
      ],
      "name": "safeTransferFrom",
      "outputs": [],
      "stateMutability": "nonpayable",
      "type": "function"
    },
    {
      "inputs": [
        {
          "internalType": "address",
          "name": "from",
          "type": "address"
        },
        {
          "internalType": "address",
          "name": "to",
          "type": "address"
        },
        {
          "internalType": "uint256",
          "name": "tokenId",
          "type": "uint256"
        },
        {
          "internalType": "bytes",
          "name": "_data",
          "type": "bytes"
        }
      ],
      "name": "safeTransferFrom",
      "outputs": [],
      "stateMutability": "nonpayable",
      "type": "function"
    },
    {
      "inputs": [
        {
          "internalType": "address",
          "name": "operator",
          "type": "address"
        },
        {
          "internalType": "bool",
          "name": "approved",
          "type": "bool"
        }
      ],
      "name": "setApprovalForAll",
      "outputs": [],
      "stateMutability": "nonpayable",
      "type": "function"
    },
    {
      "inputs": [
        {
          "internalType": "bytes4",
          "name": "interfaceId",
          "type": "bytes4"
        }
      ],
      "name": "supportsInterface",
      "outputs": [
        {
          "internalType": "bool",
          "name": "",
          "type": "bool"
        }
      ],
      "stateMutability": "view",
      "type": "function"
    },
    {
      "inputs": [],
      "name": "symbol",
      "outputs": [
        {
          "internalType": "string",
          "name": "",
          "type": "string"
        }
      ],
      "stateMutability": "view",
      "type": "function"
    },
    {
      "inputs": [
        {
          "internalType": "uint256",
          "name": "index",
          "type": "uint256"
        }
      ],
      "name": "tokenByIndex",
      "outputs": [
        {
          "internalType": "uint256",
          "name": "",
          "type": "uint256"
        }
      ],
      "stateMutability": "view",
      "type": "function"
    },
    {
      "inputs": [
        {
          "internalType": "address",
          "name": "owner",
          "type": "address"
        },
        {
          "internalType": "uint256",
          "name": "index",
          "type": "uint256"
        }
      ],
      "name": "tokenOfOwnerByIndex",
      "outputs": [
        {
          "internalType": "uint256",
          "name": "",
          "type": "uint256"
        }
      ],
      "stateMutability": "view",
      "type": "function"
    },
    {
      "inputs": [
        {
          "internalType": "uint256",
          "name": "tokenId",
          "type": "uint256"
        }
      ],
      "name": "tokenURI",
      "outputs": [
        {
          "internalType": "string",
          "name": "",
          "type": "string"
        }
      ],
      "stateMutability": "view",
      "type": "function"
    },
    {
      "inputs": [],
      "name": "totalSupply",
      "outputs": [
        {
          "internalType": "uint256",
          "name": "",
          "type": "uint256"
        }
      ],
      "stateMutability": "view",
      "type": "function"
    },
    {
      "inputs": [
        {
          "internalType": "address",
          "name": "from",
          "type": "address"
        },
        {
          "internalType": "address",
          "name": "to",
          "type": "address"
        },
        {
          "internalType": "uint256",
          "name": "tokenId",
          "type": "uint256"
        }
      ],
      "name": "transferFrom",
      "outputs": [],
      "stateMutability": "nonpayable",
      "type": "function"
    },
    {
      "inputs": [
        {
          "internalType": "address",
          "name": "newOwner",
          "type": "address"
        }
      ],
      "name": "transferOwnership",
      "outputs": [],
      "stateMutability": "nonpayable",
      "type": "function"
    },
    {
      "inputs": [
        {
          "internalType": "bool",
          "name": "val",
          "type": "bool"
        }
      ],
      "name": "setMintActive",
      "outputs": [],
      "stateMutability": "nonpayable",
      "type": "function"
    },
    {
      "inputs": [
        {
          "internalType": "bool",
          "name": "_isPreSaleMintActive",
          "type": "bool"
        }
      ],
      "name": "setIsPreSaleMintActive",
      "outputs": [],
      "stateMutability": "nonpayable",
      "type": "function"
    },
    {
      "inputs": [
        {
          "internalType": "address[]",
          "name": "addresses",
          "type": "address[]"
        },
        {
          "internalType": "uint8",
          "name": "numAllowedToMint",
          "type": "uint8"
        }
      ],
      "name": "addToAllowList",
      "outputs": [],
      "stateMutability": "nonpayable",
      "type": "function"
    },
    {
      "inputs": [
        {
          "internalType": "address",
          "name": "addr",
          "type": "address"
        }
      ],
      "name": "numAvailableToMint",
      "outputs": [
        {
          "internalType": "uint8",
          "name": "",
          "type": "uint8"
        }
      ],
      "stateMutability": "view",
      "type": "function"
    },
    {
      "inputs": [
        {
          "internalType": "string",
          "name": "provenanceHash",
          "type": "string"
        }
      ],
      "name": "setProvenanceHash",
      "outputs": [],
      "stateMutability": "nonpayable",
      "type": "function"
    },
    {
      "inputs": [
        {
          "internalType": "string",
          "name": "baseURI",
          "type": "string"
        }
      ],
      "name": "setBaseURI",
      "outputs": [],
      "stateMutability": "nonpayable",
      "type": "function"
    },
    {
      "inputs": [
        {
          "internalType": "uint256",
          "name": "_mintPrice",
          "type": "uint256"
        }
      ],
      "name": "setMintPrice",
      "outputs": [],
      "stateMutability": "nonpayable",
      "type": "function"
    },
    {
      "inputs": [
        {
          "internalType": "uint256",
          "name": "_preSaleMintPrice",
          "type": "uint256"
        }
      ],
      "name": "setPreSaleMintPrice",
      "outputs": [],
      "stateMutability": "nonpayable",
      "type": "function"
    },
    {
      "inputs": [],
      "name": "setIsClosedMintForever",
      "outputs": [],
      "stateMutability": "nonpayable",
      "type": "function"
    },
    {
      "inputs": [],
      "name": "getTotalSupply",
      "outputs": [
        {
          "internalType": "uint256",
          "name": "",
          "type": "uint256"
        }
      ],
      "stateMutability": "view",
      "type": "function"
    },
    {
      "inputs": [],
      "name": "getContractOwner",
      "outputs": [
        {
          "internalType": "address",
          "name": "",
          "type": "address"
        }
      ],
      "stateMutability": "view",
      "type": "function"
    },
    {
      "inputs": [
        {
          "internalType": "address",
          "name": "_walletAddress",
          "type": "address"
        },
        {
          "internalType": "uint256",
          "name": "_count",
          "type": "uint256"
        }
      ],
      "name": "reserveToCustomWallet",
      "outputs": [],
      "stateMutability": "nonpayable",
      "type": "function"
    },
    {
      "inputs": [
        {
          "internalType": "address",
          "name": "_to",
          "type": "address"
        },
        {
          "internalType": "uint256",
          "name": "_count",
          "type": "uint256"
        }
      ],
      "name": "mint",
      "outputs": [],
      "stateMutability": "payable",
      "type": "function"
    },
    {
      "inputs": [
        {
          "internalType": "uint8",
          "name": "_count",
          "type": "uint8"
        }
      ],
      "name": "preSaleMint",
      "outputs": [],
      "stateMutability": "payable",
      "type": "function"
    },
    {
      "inputs": [
        {
          "internalType": "address",
          "name": "_owner",
          "type": "address"
        }
      ],
      "name": "walletOfOwner",
      "outputs": [
        {
          "internalType": "uint256[]",
          "name": "",
          "type": "uint256[]"
        }
      ],
      "stateMutability": "view",
      "type": "function"
    },
    {
      "inputs": [],
      "name": "withdraw",
      "outputs": [],
      "stateMutability": "nonpayable",
      "type": "function"
    }
  ],
  "bytecode": "0x66f0dfbda3c58000600b819055600c5560a06040819052600060808190526200002b91600e91620001cb565b50600f805462ffffff191690556111d76010556005601155601280546001600160a01b03191673669fbb9a6c3186e00198b8756fda4b64500208c11790553480156200007657600080fd5b506040516200307138038062003071833981016040819052620000999162000271565b604080518082018252600e81526d556e757375616c2047756573747360901b602080830191825283518085019094526002845261554760f01b908401528151919291620000e991600091620001cb565b508051620000ff906001906020840190620001cb565b5050506200011c620001166200012e60201b60201c565b62000132565b620001278162000184565b506200039a565b3390565b600a80546001600160a01b038381166001600160a01b0319831681179093556040519116919082907f8be0079c531659141344cd1fd0a4f28419497f9722a3daafe3b4186f6b6457e090600090a35050565b336200018f620001bc565b6001600160a01b031614620001a357600080fd5b8051620001b890600d906020840190620001cb565b5050565b600a546001600160a01b031690565b828054620001d99062000347565b90600052602060002090601f016020900481019282620001fd576000855562000248565b82601f106200021857805160ff191683800117855562000248565b8280016001018555821562000248579182015b82811115620002485782518255916020019190600101906200022b565b50620002569291506200025a565b5090565b5b808211156200025657600081556001016200025b565b6000602080838503121562000284578182fd5b82516001600160401b03808211156200029b578384fd5b818501915085601f830112620002af578384fd5b815181811115620002c457620002c462000384565b604051601f8201601f19908116603f01168101908382118183101715620002ef57620002ef62000384565b81604052828152888684870101111562000307578687fd5b8693505b828410156200032a57848401860151818501870152928501926200030b565b828411156200033b57868684830101525b98975050505050505050565b6002810460018216806200035c57607f821691505b602082108114156200037e57634e487b7160e01b600052602260045260246000fd5b50919050565b634e487b7160e01b600052604160045260246000fd5b612cc780620003aa6000396000f3fe60806040526004361061025c5760003560e01c80636373a6b111610144578063a22cb465116100b6578063e985e9c51161007a578063e985e9c51461069d578063ec7d0991146106bd578063ee1cc944146106d2578063f2fde38b146106f2578063f4a0a52814610712578063f9f67d6c146107325761025c565b8063a22cb465146105fb578063b88d4fde1461061b578063c04a28361461063b578063c4e41b2214610668578063c87b56dd1461067d5761025c565b80637d26f470116101085780637d26f4701461057d5780638da5cb5b14610592578063932ecebc146105a757806395d89b41146105bc5780639a3bf728146105d15780639ccb0fea146105e65761025c565b80636373a6b1146104fe5780636817c76c1461051357806370a0823114610528578063715018a61461054857806377b501b91461055d5761025c565b80633ccfd60b116101dd578063442890d5116101a1578063442890d51461045f5780634d0550de146104745780634f6ccce71461048957806355f804b3146104a95780635b92ac0d146104c95780636352211e146104de5761025c565b80633ccfd60b146103ca5780633cfac570146103df57806340c10f19146103ff57806342842e0e14610412578063438b6300146104325761025c565b80631096952311610224578063109695231461032857806318160ddd1461034857806323b872dd1461036a5780632f745c591461038a5780633b9ee7e4146103aa5761025c565b8063015963091461026157806301ffc9a71461028357806306fdde03146102b9578063081812fc146102db578063095ea7b314610308575b600080fd5b34801561026d57600080fd5b5061028161027c36600461218a565b610745565b005b34801561028f57600080fd5b506102a361029e366004612222565b610850565b6040516102b091906123c2565b60405180910390f35b3480156102c557600080fd5b506102ce61087d565b6040516102b091906123cd565b3480156102e757600080fd5b506102fb6102f63660046122a0565b61090f565b6040516102b0919061232d565b34801561031457600080fd5b50610281610323366004612161565b610952565b34801561033457600080fd5b5061028161034336600461225a565b6109ea565b34801561035457600080fd5b5061035d610a1d565b6040516102b09190612af0565b34801561037657600080fd5b50610281610385366004612084565b610a23565b34801561039657600080fd5b5061035d6103a5366004612161565b610a5b565b3480156103b657600080fd5b506102816103c53660046122a0565b610aad565b3480156103d657600080fd5b50610281610ace565b3480156103eb57600080fd5b506102816103fa366004612208565b610b8f565b61028161040d366004612161565b610bc5565b34801561041e57600080fd5b5061028161042d366004612084565b610d4a565b34801561043e57600080fd5b5061045261044d366004612038565b610d65565b6040516102b0919061237e565b34801561046b57600080fd5b506102fb610e23565b34801561048057600080fd5b5061035d610e32565b34801561049557600080fd5b5061035d6104a43660046122a0565b610e38565b3480156104b557600080fd5b506102816104c436600461225a565b610e93565b3480156104d557600080fd5b506102a3610ec2565b3480156104ea57600080fd5b506102fb6104f93660046122a0565b610ecb565b34801561050a57600080fd5b506102ce610f00565b34801561051f57600080fd5b5061035d610f8e565b34801561053457600080fd5b5061035d610543366004612038565b610f94565b34801561055457600080fd5b50610281610fd8565b34801561056957600080fd5b50610281610578366004612161565b611023565b34801561058957600080fd5b506102a36110ce565b34801561059e57600080fd5b506102fb6110dd565b3480156105b357600080fd5b506102816110ec565b3480156105c857600080fd5b506102ce61111b565b3480156105dd57600080fd5b5061035d61112a565b3480156105f257600080fd5b506102a3611130565b34801561060757600080fd5b50610281610616366004612138565b61113e565b34801561062757600080fd5b506102816106363660046120bf565b611150565b34801561064757600080fd5b5061065b610656366004612038565b611189565b6040516102b09190612b10565b34801561067457600080fd5b5061035d6111a7565b34801561068957600080fd5b506102ce6106983660046122a0565b6111b1565b3480156106a957600080fd5b506102a36106b8366004612052565b611234565b3480156106c957600080fd5b5061035d611262565b3480156106de57600080fd5b506102816106ed366004612208565b611268565b3480156106fe57600080fd5b5061028161070d366004612038565b6112cd565b34801561071e57600080fd5b5061028161072d3660046122a0565b61133e565b6102816107403660046122b8565b61135f565b3361074e6110dd565b6001600160a01b03161461076157600080fd5b60005b8281101561084a57600084848381811061078e57634e487b7160e01b600052603260045260246000fd5b90506020020160208101906107a39190612038565b6001600160a01b031614156107d35760405162461bcd60e51b81526004016107ca90612870565b60405180910390fd5b81601360008686858181106107f857634e487b7160e01b600052603260045260246000fd5b905060200201602081019061080d9190612038565b6001600160a01b031681526020810191909152604001600020805460ff191660ff929092169190911790558061084281612c0a565b915050610764565b50505050565b60006001600160e01b0319821663780e9d6360e01b148061087557506108758261151a565b90505b919050565b60606000805461088c90612bcf565b80601f01602080910402602001604051908101604052809291908181526020018280546108b890612bcf565b80156109055780601f106108da57610100808354040283529160200191610905565b820191906000526020600020905b8154815290600101906020018083116108e857829003601f168201915b5050505050905090565b600061091a8261155a565b6109365760405162461bcd60e51b81526004016107ca90612824565b506000908152600460205260409020546001600160a01b031690565b600061095d82610ecb565b9050806001600160a01b0316836001600160a01b031614156109915760405162461bcd60e51b81526004016107ca90612962565b806001600160a01b03166109a3611577565b6001600160a01b031614806109bf57506109bf816106b8611577565b6109db5760405162461bcd60e51b81526004016107ca906126c8565b6109e5838361157b565b505050565b336109f36110dd565b6001600160a01b031614610a0657600080fd5b8051610a1990600e906020840190611ef1565b5050565b60085490565b610a34610a2e611577565b826115e9565b610a505760405162461bcd60e51b81526004016107ca906129e5565b6109e583838361166e565b6000610a6683610f94565b8210610a845760405162461bcd60e51b81526004016107ca90612417565b506001600160a01b03919091166000908152600660209081526040808320938352929052205490565b33610ab66110dd565b6001600160a01b031614610ac957600080fd5b600c55565b33610ad76110dd565b6001600160a01b031614610aea57600080fd5b60125447906001600160a01b03166108fc612710610b088482612b4a565b610b129190612b36565b6040518115909202916000818181858888f19350505050158015610b3a573d6000803e3d6000fd5b50610b436110dd565b6001600160a01b03166108fc612710610b5d846000612b4a565b610b679190612b36565b6040518115909202916000818181858888f19350505050158015610a19573d6000803e3d6000fd5b33610b986110dd565b6001600160a01b031614610bab57600080fd5b600f80549115156101000261ff0019909216919091179055565b601054610bd0610a1d565b1115610bee5760405162461bcd60e51b81526004016107ca906125d8565b610bf66110dd565b6001600160a01b0316336001600160a01b031614610c3057600f5460ff16610c305760405162461bcd60e51b81526004016107ca906123e0565b60105481610c3c610a1d565b610c469190612b1e565b1115610c645760405162461bcd60e51b81526004016107ca906124fa565b601154811115610c865760405162461bcd60e51b81526004016107ca9061292b565b600f5462010000900460ff1615610caf5760405162461bcd60e51b81526004016107ca906125ab565b80600b54610cbd9190612b4a565b341015610cdc5760405162461bcd60e51b81526004016107ca90612ab9565b60005b818110156109e5577f55f284809f4c5b7377fbe62f2feeb9686e3834dcae5f3ca955140fe6547cd355610d10610a1d565b84604051610d1f929190612af9565b60405180910390a1610d3883610d33610a1d565b6117a1565b80610d4281612c0a565b915050610cdf565b6109e583838360405180602001604052806000815250611150565b60606000610d7283610f94565b905060008167ffffffffffffffff811115610d9d57634e487b7160e01b600052604160045260246000fd5b604051908082528060200260200182016040528015610dc6578160200160208202803683370190505b50905060005b82811015610e1b57610dde8582610a5b565b828281518110610dfe57634e487b7160e01b600052603260045260246000fd5b602090810291909101015280610e1381612c0a565b915050610dcc565b509392505050565b6000610e2d6110dd565b905090565b60105481565b6000610e42610a1d565b8210610e605760405162461bcd60e51b81526004016107ca90612a36565b60088281548110610e8157634e487b7160e01b600052603260045260246000fd5b90600052602060002001549050919050565b33610e9c6110dd565b6001600160a01b031614610eaf57600080fd5b8051610a1990600d906020840190611ef1565b600f5460ff1681565b6000818152600260205260408120546001600160a01b0316806108755760405162461bcd60e51b81526004016107ca9061276f565b600e8054610f0d90612bcf565b80601f0160208091040260200160405190810160405280929190818152602001828054610f3990612bcf565b8015610f865780601f10610f5b57610100808354040283529160200191610f86565b820191906000526020600020905b815481529060010190602001808311610f6957829003601f168201915b505050505081565b600b5481565b60006001600160a01b038216610fbc5760405162461bcd60e51b81526004016107ca90612725565b506001600160a01b031660009081526003602052604090205490565b610fe0611577565b6001600160a01b0316610ff16110dd565b6001600160a01b0316146110175760405162461bcd60e51b81526004016107ca906128a7565b61102160006117bb565b565b3361102c6110dd565b6001600160a01b03161461103f57600080fd5b60005b818110156109e5576001600160a01b0383166110705760405162461bcd60e51b81526004016107ca906127b8565b7f55f284809f4c5b7377fbe62f2feeb9686e3834dcae5f3ca955140fe6547cd355611099610a1d565b846040516110a8929190612af9565b60405180910390a16110bc83610d33610a1d565b806110c681612c0a565b915050611042565b600f5462010000900460ff1681565b600a546001600160a01b031690565b336110f56110dd565b6001600160a01b03161461110857600080fd5b600f805462ff0000191662010000179055565b60606001805461088c90612bcf565b60115481565b600f54610100900460ff1681565b610a19611149611577565b838361180d565b61116161115b611577565b836115e9565b61117d5760405162461bcd60e51b81526004016107ca906129e5565b61084a848484846118b0565b6001600160a01b031660009081526013602052604090205460ff1690565b6000610e2d610a1d565b60606111bc8261155a565b6111d85760405162461bcd60e51b81526004016107ca906128dc565b60006111e26118e3565b90506000815111611202576040518060200160405280600081525061122d565b8061120c846118f2565b60405160200161121d9291906122fe565b6040516020818303038152906040525b9392505050565b6001600160a01b03918216600090815260056020908152604080832093909416825291909152205460ff1690565b600c5481565b336112716110dd565b6001600160a01b03161461128457600080fd5b600f805460ff19168215151790556040517f58655b75d3df612fe99ead00dbf0812d415d35078fe06217a94c0818bb13967f906112c29083906123c2565b60405180910390a150565b6112d5611577565b6001600160a01b03166112e66110dd565b6001600160a01b03161461130c5760405162461bcd60e51b81526004016107ca906128a7565b6001600160a01b0381166113325760405162461bcd60e51b81526004016107ca906124b4565b61133b816117bb565b50565b336113476110dd565b6001600160a01b03161461135a57600080fd5b600b55565b60105461136a610a1d565b11156113885760405162461bcd60e51b81526004016107ca906125d8565b600f5462010000900460ff16156113b15760405162461bcd60e51b81526004016107ca906125ab565b600f54610100900460ff166113d85760405162461bcd60e51b81526004016107ca90612a82565b3360009081526013602052604090205460ff908116908216111561140e5760405162461bcd60e51b81526004016107ca906129a3565b601054611419610a1d565b6114269060ff8416612b1e565b11156114445760405162461bcd60e51b81526004016107ca906124fa565b8060ff16600c546114559190612b4a565b3410156114745760405162461bcd60e51b81526004016107ca90612ab9565b336000908152601360205260408120805483929061149690849060ff16612b80565b92506101000a81548160ff021916908360ff16021790555060005b8160ff16811015610a19577f55f284809f4c5b7377fbe62f2feeb9686e3834dcae5f3ca955140fe6547cd3556114e5610a1d565b336040516114f4929190612af9565b60405180910390a161150833610d33610a1d565b8061151281612c0a565b9150506114b1565b60006001600160e01b031982166380ac58cd60e01b148061154b57506001600160e01b03198216635b5e139f60e01b145b80610875575061087582611a0d565b6000908152600260205260409020546001600160a01b0316151590565b3390565b600081815260046020526040902080546001600160a01b0319166001600160a01b03841690811790915581906115b082610ecb565b6001600160a01b03167f8c5be1e5ebec7d5bd14f71427d1e84f3dd0314c0f7b2291e5b200ac8c7c3b92560405160405180910390a45050565b60006115f48261155a565b6116105760405162461bcd60e51b81526004016107ca9061267c565b600061161b83610ecb565b9050806001600160a01b0316846001600160a01b031614806116565750836001600160a01b031661164b8461090f565b6001600160a01b0316145b8061166657506116668185611234565b949350505050565b826001600160a01b031661168182610ecb565b6001600160a01b0316146116a75760405162461bcd60e51b81526004016107ca9061252f565b6001600160a01b0382166116cd5760405162461bcd60e51b81526004016107ca90612601565b6116d8838383611a26565b6116e360008261157b565b6001600160a01b038316600090815260036020526040812080546001929061170c908490612b69565b90915550506001600160a01b038216600090815260036020526040812080546001929061173a908490612b1e565b909155505060008181526002602052604080822080546001600160a01b0319166001600160a01b0386811691821790925591518493918716917fddf252ad1be2c89b69c2b068fc378daa952ba7f163c4a11628f55a4df523b3ef91a46109e58383836109e5565b610a19828260405180602001604052806000815250611aaf565b600a80546001600160a01b038381166001600160a01b0319831681179093556040519116919082907f8be0079c531659141344cd1fd0a4f28419497f9722a3daafe3b4186f6b6457e090600090a35050565b816001600160a01b0316836001600160a01b0316141561183f5760405162461bcd60e51b81526004016107ca90612645565b6001600160a01b0383811660008181526005602090815260408083209487168084529490915290819020805460ff1916851515179055517f17307eab39ab6107e8899845ad3d59bd9653f200f220920489ca2b5937696c31906118a39085906123c2565b60405180910390a3505050565b6118bb84848461166e565b6118c784848484611ae2565b61084a5760405162461bcd60e51b81526004016107ca90612462565b6060600d805461088c90612bcf565b60608161191757506040805180820190915260018152600360fc1b6020820152610878565b8160005b8115611941578061192b81612c0a565b915061193a9050600a83612b36565b915061191b565b60008167ffffffffffffffff81111561196a57634e487b7160e01b600052604160045260246000fd5b6040519080825280601f01601f191660200182016040528015611994576020820181803683370190505b5090505b8415611666576119a9600183612b69565b91506119b6600a86612c25565b6119c1906030612b1e565b60f81b8183815181106119e457634e487b7160e01b600052603260045260246000fd5b60200101906001600160f81b031916908160001a905350611a06600a86612b36565b9450611998565b6001600160e01b031981166301ffc9a760e01b14919050565b611a318383836109e5565b6001600160a01b038316611a4d57611a4881611bfd565b611a70565b816001600160a01b0316836001600160a01b031614611a7057611a708382611c41565b6001600160a01b038216611a8c57611a8781611cde565b6109e5565b826001600160a01b0316826001600160a01b0316146109e5576109e58282611db7565b611ab98383611dfb565b611ac66000848484611ae2565b6109e55760405162461bcd60e51b81526004016107ca90612462565b6000611af6846001600160a01b0316611ee2565b15611bf257836001600160a01b031663150b7a02611b12611577565b8786866040518563ffffffff1660e01b8152600401611b349493929190612341565b602060405180830381600087803b158015611b4e57600080fd5b505af1925050508015611b7e575060408051601f3d908101601f19168201909252611b7b9181019061223e565b60015b611bd8573d808015611bac576040519150601f19603f3d011682016040523d82523d6000602084013e611bb1565b606091505b508051611bd05760405162461bcd60e51b81526004016107ca90612462565b805181602001fd5b6001600160e01b031916630a85bd0160e11b149050611666565b506001949350505050565b600880546000838152600960205260408120829055600182018355919091527ff3f7a9fe364faab93b216da50a3214154f22a0a2b415b23a84c8169e8b636ee30155565b60006001611c4e84610f94565b611c589190612b69565b600083815260076020526040902054909150808214611cab576001600160a01b03841660009081526006602090815260408083208584528252808320548484528184208190558352600790915290208190555b5060009182526007602090815260408084208490556001600160a01b039094168352600681528383209183525290812055565b600854600090611cf090600190612b69565b60008381526009602052604081205460088054939450909284908110611d2657634e487b7160e01b600052603260045260246000fd5b906000526020600020015490508060088381548110611d5557634e487b7160e01b600052603260045260246000fd5b6000918252602080832090910192909255828152600990915260408082208490558582528120556008805480611d9b57634e487b7160e01b600052603160045260246000fd5b6001900381819060005260206000200160009055905550505050565b6000611dc283610f94565b6001600160a01b039093166000908152600660209081526040808320868452825280832085905593825260079052919091209190915550565b6001600160a01b038216611e215760405162461bcd60e51b81526004016107ca906127ef565b611e2a8161155a565b15611e475760405162461bcd60e51b81526004016107ca90612574565b611e5360008383611a26565b6001600160a01b0382166000908152600360205260408120805460019290611e7c908490612b1e565b909155505060008181526002602052604080822080546001600160a01b0319166001600160a01b03861690811790915590518392907fddf252ad1be2c89b69c2b068fc378daa952ba7f163c4a11628f55a4df523b3ef908290a4610a19600083836109e5565b6001600160a01b03163b151590565b828054611efd90612bcf565b90600052602060002090601f016020900481019282611f1f5760008555611f65565b82601f10611f3857805160ff1916838001178555611f65565b82800160010185558215611f65579182015b82811115611f65578251825591602001919060010190611f4a565b50611f71929150611f75565b5090565b5b80821115611f715760008155600101611f76565b600067ffffffffffffffff80841115611fa557611fa5612c65565b604051601f8501601f19908116603f01168101908282118183101715611fcd57611fcd612c65565b81604052809350858152868686011115611fe657600080fd5b858560208301376000602087830101525050509392505050565b80356001600160a01b038116811461087857600080fd5b8035801515811461087857600080fd5b803560ff8116811461087857600080fd5b600060208284031215612049578081fd5b61122d82612000565b60008060408385031215612064578081fd5b61206d83612000565b915061207b60208401612000565b90509250929050565b600080600060608486031215612098578081fd5b6120a184612000565b92506120af60208501612000565b9150604084013590509250925092565b600080600080608085870312156120d4578081fd5b6120dd85612000565b93506120eb60208601612000565b925060408501359150606085013567ffffffffffffffff81111561210d578182fd5b8501601f8101871361211d578182fd5b61212c87823560208401611f8a565b91505092959194509250565b6000806040838503121561214a578182fd5b61215383612000565b915061207b60208401612017565b60008060408385031215612173578182fd5b61217c83612000565b946020939093013593505050565b60008060006040848603121561219e578283fd5b833567ffffffffffffffff808211156121b5578485fd5b818601915086601f8301126121c8578485fd5b8135818111156121d6578586fd5b87602080830285010111156121e9578586fd5b6020928301955093506121ff9186019050612027565b90509250925092565b600060208284031215612219578081fd5b61122d82612017565b600060208284031215612233578081fd5b813561122d81612c7b565b60006020828403121561224f578081fd5b815161122d81612c7b565b60006020828403121561226b578081fd5b813567ffffffffffffffff811115612281578182fd5b8201601f81018413612291578182fd5b61166684823560208401611f8a565b6000602082840312156122b1578081fd5b5035919050565b6000602082840312156122c9578081fd5b61122d82612027565b600081518084526122ea816020860160208601612ba3565b601f01601f19169290920160200192915050565b60008351612310818460208801612ba3565b835190830190612324818360208801612ba3565b01949350505050565b6001600160a01b0391909116815260200190565b6001600160a01b0385811682528416602082015260408101839052608060608201819052600090612374908301846122d2565b9695505050505050565b6020808252825182820181905260009190848201906040850190845b818110156123b65783518352928401929184019160010161239a565b50909695505050505050565b901515815260200190565b60006020825261122d60208301846122d2565b6020808252601d908201527f53616c65206973206e6f74206163746976652063757272656e746c792e000000604082015260600190565b6020808252602b908201527f455243373231456e756d657261626c653a206f776e657220696e646578206f7560408201526a74206f6620626f756e647360a81b606082015260800190565b60208082526032908201527f4552433732313a207472616e7366657220746f206e6f6e20455243373231526560408201527131b2b4bb32b91034b6b83632b6b2b73a32b960711b606082015260800190565b60208082526026908201527f4f776e61626c653a206e6577206f776e657220697320746865207a65726f206160408201526564647265737360d01b606082015260800190565b6020808252818101527f507572636861736520776f756c6420657863656564206d617820746f6b656e73604082015260600190565b60208082526025908201527f4552433732313a207472616e736665722066726f6d20696e636f72726563742060408201526437bbb732b960d91b606082015260800190565b6020808252601c908201527f4552433732313a20746f6b656e20616c7265616479206d696e74656400000000604082015260600190565b60208082526013908201527226b4b73a1021b637b9b2b2102337b932bb32b960691b604082015260600190565b6020808252600f908201526e29b0b632903430b99032b73232b21760891b604082015260600190565b60208082526024908201527f4552433732313a207472616e7366657220746f20746865207a65726f206164646040820152637265737360e01b606082015260800190565b60208082526019908201527f4552433732313a20617070726f766520746f2063616c6c657200000000000000604082015260600190565b6020808252602c908201527f4552433732313a206f70657261746f7220717565727920666f72206e6f6e657860408201526b34b9ba32b73a103a37b5b2b760a11b606082015260800190565b60208082526038908201527f4552433732313a20617070726f76652063616c6c6572206973206e6f74206f7760408201527f6e6572206e6f7220617070726f76656420666f7220616c6c0000000000000000606082015260800190565b6020808252602a908201527f4552433732313a2062616c616e636520717565727920666f7220746865207a65604082015269726f206164647265737360b01b606082015260800190565b60208082526029908201527f4552433732313a206f776e657220717565727920666f72206e6f6e657869737460408201526832b73a103a37b5b2b760b91b606082015260800190565b6020808252601d908201527f4e6f74204d696e7420666f7220746865207a65726f2061646472657373000000604082015260600190565b6020808252818101527f4552433732313a206d696e7420746f20746865207a65726f2061646472657373604082015260600190565b6020808252602c908201527f4552433732313a20617070726f76656420717565727920666f72206e6f6e657860408201526b34b9ba32b73a103a37b5b2b760a11b606082015260800190565b60208082526018908201527f43616e2774206164642061206e756c6c20616464726573730000000000000000604082015260600190565b6020808252818101527f4f776e61626c653a2063616c6c6572206973206e6f7420746865206f776e6572604082015260600190565b6020808252602f908201527f4552433732314d657461646174613a2055524920717565727920666f72206e6f60408201526e3732bc34b9ba32b73a103a37b5b2b760891b606082015260800190565b6020808252601e908201527f45786365656473206d6178696d756d20616c6c6f77656420746f6b656e730000604082015260600190565b60208082526021908201527f4552433732313a20617070726f76616c20746f2063757272656e74206f776e656040820152603960f91b606082015260800190565b60208082526022908201527f4578636565646564206d617820617661696c61626c6520746f20707572636861604082015261736560f01b606082015260800190565b60208082526031908201527f4552433732313a207472616e736665722063616c6c6572206973206e6f74206f6040820152701ddb995c881b9bdc88185c1c1c9bdd9959607a1b606082015260800190565b6020808252602c908201527f455243373231456e756d657261626c653a20676c6f62616c20696e646578206f60408201526b7574206f6620626f756e647360a01b606082015260800190565b6020808252601b908201527f5072652053616c65204d696e74206973206e6f74206163746976650000000000604082015260600190565b6020808252601b908201527f496e7375666669656e742045544820616d6f756e742073656e742e0000000000604082015260600190565b90815260200190565b9182526001600160a01b0316602082015260400190565b60ff91909116815260200190565b60008219821115612b3157612b31612c39565b500190565b600082612b4557612b45612c4f565b500490565b6000816000190483118215151615612b6457612b64612c39565b500290565b600082821015612b7b57612b7b612c39565b500390565b600060ff821660ff841680821015612b9a57612b9a612c39565b90039392505050565b60005b83811015612bbe578181015183820152602001612ba6565b8381111561084a5750506000910152565b600281046001821680612be357607f821691505b60208210811415612c0457634e487b7160e01b600052602260045260246000fd5b50919050565b6000600019821415612c1e57612c1e612c39565b5060010190565b600082612c3457612c34612c4f565b500690565b634e487b7160e01b600052601160045260246000fd5b634e487b7160e01b600052601260045260246000fd5b634e487b7160e01b600052604160045260246000fd5b6001600160e01b03198116811461133b57600080fdfea2646970667358221220e6fbd1126c2b636799f97b26d200c459e72ddeb69e023ee261288dcd279bc1f064736f6c63430008010033",
  "immutableReferences": {},
  "source": "// SPDX-License-Identifier: MIT\n//\n// Made by: NFT Stack\n//          https://nftstack.info\n//\n\npragma solidity ^0.8.1;\n\nimport \"@openzeppelin/contracts/token/ERC721/extensions/ERC721Enumerable.sol\";\nimport \"@openzeppelin/contracts/access/Ownable.sol\";\n\ncontract UnusualGuests is ERC721Enumerable, Ownable {\n  uint256 public mintPrice = 0.0678 ether;\n  uint256 public preSaleMintPrice = 0.0678 ether;\n\n  string _baseTokenURI;\n  string public PROVENANCE = \"\";\n\n  bool public isMintActive = false;\n  bool public isPreSaleMintActive = false;\n  bool public isClosedMintForever = false;\n\n  uint256 public maximumMintSupply = 4567;\n  uint256 public maximumAllowedTokensPerPurchase = 5;\n\n  address private OtherAddress = 0x669fbb9A6c3186E00198B8756fDA4B64500208c1;\n\n  mapping(address => uint8) private _allowList;\n\n  event AssetMinted(uint256 tokenId, address sender);\n  event SaleActivation(bool isMintActive);\n\n  constructor(string memory baseURI) ERC721(\"Unusual Guests\", \"UG\") {\n    setBaseURI(baseURI);\n  }\n\n  modifier saleIsOpen {\n    require(totalSupply() <= maximumMintSupply, \"Sale has ended.\");\n    _;\n  }\n\n  modifier onlyAuthorized() {\n    require(owner() == msg.sender);\n    _;\n  }\n\n  function setMintActive(bool val) public onlyAuthorized {\n    isMintActive = val;\n    emit SaleActivation(val);\n  }\n\n  function setIsPreSaleMintActive(bool _isPreSaleMintActive) external onlyAuthorized {\n    isPreSaleMintActive = _isPreSaleMintActive;\n  }\n\n  function addToAllowList(address[] calldata addresses, uint8 numAllowedToMint) external onlyAuthorized {\n    for (uint256 i = 0; i < addresses.length; i++) {\n      require(addresses[i] != address(0), \"Can't add a null address\");\n      _allowList[addresses[i]] = numAllowedToMint;\n    }\n  }\n\n  function numAvailableToMint(address addr) external view returns (uint8) {\n    return _allowList[addr];\n  }\n\n  function setProvenanceHash(string memory provenanceHash) public onlyAuthorized {\n    PROVENANCE = provenanceHash;\n  }\n\n  function setBaseURI(string memory baseURI) public onlyAuthorized {\n    _baseTokenURI = baseURI;\n  }\n\n  function setMintPrice(uint256 _mintPrice) public onlyAuthorized() {\n    mintPrice = _mintPrice;\n  }\n\n  function setPreSaleMintPrice(uint256 _preSaleMintPrice) public onlyAuthorized() {\n    preSaleMintPrice = _preSaleMintPrice;\n  }\n\n  function setIsClosedMintForever() external onlyAuthorized {\n    isClosedMintForever = true;\n  }\n\n  function getTotalSupply() external view returns (uint256) {\n    return totalSupply();\n  }\n\n  function getContractOwner() public view returns (address) {\n    return owner();\n  }\n\n  function _baseURI() internal view virtual override returns (string memory) {\n    return _baseTokenURI;\n  }\n\n  function reserveToCustomWallet(address _walletAddress, uint256 _count) public onlyAuthorized {\n    for (uint256 i = 0; i < _count; i++) {\n      require(_walletAddress!= address(0), \"Not Mint for the zero address\");\n      emit AssetMinted(totalSupply(), _walletAddress);\n      _safeMint(_walletAddress, totalSupply());\n    }\n  }\n\n  function mint(address _to, uint256 _count) public payable saleIsOpen {\n    if (msg.sender != owner()) {\n      require(isMintActive, \"Sale is not active currently.\");\n    }\n\n    require(totalSupply() + _count <= maximumMintSupply, \"Purchase would exceed max tokens\");\n    require(\n      _count <= maximumAllowedTokensPerPurchase,\n      \"Exceeds maximum allowed tokens\"\n    );\n    require(!isClosedMintForever, \"Mint Closed Forever\");\n\n    require(msg.value >= mintPrice * _count, \"Insuffient ETH amount sent.\");\n\n    for (uint256 i = 0; i < _count; i++) {\n      emit AssetMinted(totalSupply(), _to);\n      _safeMint(_to, totalSupply());\n    }\n  }\n\n  function preSaleMint(uint8 _count) public payable saleIsOpen {\n    require(!isClosedMintForever, 'Mint Closed Forever');\n    require(isPreSaleMintActive, 'Pre Sale Mint is not active');\n    require(_count <= _allowList[msg.sender], 'Exceeded max available to purchase');\n    require(_count + totalSupply() <= maximumMintSupply, 'Purchase would exceed max tokens');\n    require(msg.value >= preSaleMintPrice * _count, 'Insuffient ETH amount sent.');\n\n    _allowList[msg.sender] -= _count;\n    for (uint256 i = 0; i < _count; i++) {\n      emit AssetMinted(totalSupply(), msg.sender);\n      _safeMint(msg.sender, totalSupply());\n    }\n  }\n\n  function walletOfOwner(address _owner) external view returns(uint256[] memory) {\n    uint tokenCount = balanceOf(_owner);\n    uint256[] memory tokensId = new uint256[](tokenCount);\n\n    for(uint i = 0; i < tokenCount; i++){\n      tokensId[i] = tokenOfOwnerByIndex(_owner, i);\n    }\n    return tokensId;\n  }\n\n  function withdraw() external onlyAuthorized {\n    uint balance = address(this).balance;\n    payable(OtherAddress).transfer(balance * 10000 / 10000);\n    payable(owner()).transfer(balance * 0 / 10000);\n  }\n}",
  "sourcePath": "C:\\Users\\User\\Documents\\GitHub\\unusual-guests\\contracts\\UnusualGuests.sol",
  "compiler": {
    "name": "solc",
    "version": "0.8.1+commit.df193b15.Emscripten.clang"
  },
  "schemaVersion": "3.4.5",
  "updatedAt": "2022-04-11T18:33:52.610Z",
  "devdoc": {
    "kind": "dev",
    "methods": {
      "approve(address,uint256)": {
        "details": "See {IERC721-approve}."
      },
      "balanceOf(address)": {
        "details": "See {IERC721-balanceOf}."
      },
      "getApproved(uint256)": {
        "details": "See {IERC721-getApproved}."
      },
      "isApprovedForAll(address,address)": {
        "details": "See {IERC721-isApprovedForAll}."
      },
      "name()": {
        "details": "See {IERC721Metadata-name}."
      },
      "owner()": {
        "details": "Returns the address of the current owner."
      },
      "ownerOf(uint256)": {
        "details": "See {IERC721-ownerOf}."
      },
      "renounceOwnership()": {
        "details": "Leaves the contract without owner. It will not be possible to call `onlyOwner` functions anymore. Can only be called by the current owner. NOTE: Renouncing ownership will leave the contract without an owner, thereby removing any functionality that is only available to the owner."
      },
      "safeTransferFrom(address,address,uint256)": {
        "details": "See {IERC721-safeTransferFrom}."
      },
      "safeTransferFrom(address,address,uint256,bytes)": {
        "details": "See {IERC721-safeTransferFrom}."
      },
      "setApprovalForAll(address,bool)": {
        "details": "See {IERC721-setApprovalForAll}."
      },
      "supportsInterface(bytes4)": {
        "details": "See {IERC165-supportsInterface}."
      },
      "symbol()": {
        "details": "See {IERC721Metadata-symbol}."
      },
      "tokenByIndex(uint256)": {
        "details": "See {IERC721Enumerable-tokenByIndex}."
      },
      "tokenOfOwnerByIndex(address,uint256)": {
        "details": "See {IERC721Enumerable-tokenOfOwnerByIndex}."
      },
      "tokenURI(uint256)": {
        "details": "See {IERC721Metadata-tokenURI}."
      },
      "totalSupply()": {
        "details": "See {IERC721Enumerable-totalSupply}."
      },
      "transferFrom(address,address,uint256)": {
        "details": "See {IERC721-transferFrom}."
      },
      "transferOwnership(address)": {
        "details": "Transfers ownership of the contract to a new account (`newOwner`). Can only be called by the current owner."
      }
    },
    "version": 1
  },
  "userdoc": {
    "kind": "user",
    "methods": {},
    "version": 1
  }
}